4700600010267470000000000  02150DMR GEORGE M HILLENBRAND II    330 MITCHELL AVENUE                                         BATESVILLE     IN47006DEAR MR. HILLENBRAND,         N                                                                                                                                                                                              MPHILLIPS@MULTIVALUECENTRAL.COM
4603800010267470001144625  02150RMR AND MRS STEPEHEN ABDALLA   8111 CONNERWOOD LANE                                        FISHERS        IN47006                              N175 - SUPREME MXD NUTS 1LB 8OZ - P 6    HAPPY HOLIDAYS!                         GEORGE M. HILLENBRAND II                                                                                      
47006000102674700016847290002150R                              102 N SMITH ST                                              BATESVILLE     IN47006                              Y175 - SUPREME MXD NUTS 1LB 8OZ - P 6    HAPPY HOLIDAYS!                         GEORGE M. HILLENBRAND II                                                        BEDEL'S MARATHON              
4700600010267470001684712  02150RDOUG BESSLER                  BESSLERS TRACKSIDE AUTO DEPOT 509 S PARK AVE                BATESVILLE     IN47006                              N175 - SUPREME MXD NUTS 1LB 8OZ - P 6    HAPPY HOLIDAYS!                         GEORGE M. HILLENBRAND II                                                                                      
2946400010267470001832098  02150RELLE BLAKENEY                 117 FREEMAN ST                                              MOUNT PLEASANT SC47006                              N175 - SUPREME MXD NUTS 1LB 8OZ - P 6    HAPPY HOLIDAYS!                         GEORGE M. HILLENBRAND II                                                                                      
9003400010267470001832097  02150RSAM BLAKENEY                  1929 S HOLT AVE                                             LOS ANGELES    CA47006                              N175 - SUPREME MXD NUTS 1LB 8OZ - P 6    HAPPY HOLIDAYS!                         GEORGE M. HILLENBRAND II                                                                                      
2945500010267470001757370  02150RE DUBOSE BLAKENEY             1344 HEADQUARTERS PLANTATIONDR                              JOHNS ISLAND   SC47006                              N175 - SUPREME MXD NUTS 1LB 8OZ - P 6    HAPPY HOLIDAYS!                         GEORGE M. HILLENBRAND II                                                                                      
33432000102674700016847370002150R                              1450 NW 1ST AVE                                             BOCA RATON     FL47006                              Y175 - SUPREME MXD NUTS 1LB 8OZ - P 6    HAPPY HOLIDAYS!                         GEORGE M. HILLENBRAND II                                                        BOCA TRANSPORATION            
0236000010267470001535057  02150RGRETCHEN & STEPHEN BRADLEY    24 WICKERTREE                                               PLYMOUTH       MA47006                              N175 - SUPREME MXD NUTS 1LB 8OZ - P 6    HAPPY HOLIDAYS!                         GEORGE M. HILLENBRAND II                                                                                      
2940100010267470001026759  02150RBETH & LARRY BURTSCHY         7 MEETING ST                                                CHARLESTON     SC47006                              N175 - SUPREME MXD NUTS 1LB 8OZ - P 6    HAPPY HOLIDAYS!                         GEORGE M. HILLENBRAND II                                                                                      
2940100010267470001188738  02150REUGENIA & LAWRENCE F BURTSCHY 332 EAST BAY ST                                             CHARLESTON     SC47006                              N175 - SUPREME MXD NUTS 1LB 8OZ - P 6    HAPPY HOLIDAYS!                         GEORGE M. HILLENBRAND II                                                                                      
2940100010267470001832106  02150RLATASHA CAPLETON & FRIENDS    BELMOND CHARLESTON PLACE HOTEL205 MEETING ST                CHARLESTON     SC47006                              Y175 - SUPREME MXD NUTS 1LB 8OZ - P 6    HAPPY HOLIDAYS!                         GEORGE M. HILLENBRAND II                                                                                      
29407000102674700016847320002150R                              1529 SAM RITTENBERG BLVD #2B                                CHARLESTON     SC47006                              Y175 - SUPREME MXD NUTS 1LB 8OZ - P 6    HAPPY HOLIDAYS!                         GEORGE M. HILLENBRAND II                                                        CHARLESTON BLACK CAB COMPANY  
4700600010267470001026753  02150RMRS MARY COLLINS              C/O GEORGE M HILLENBRAND II   330 MITCHELL AVE              BATESVILLE     IN47006                              N175 - SUPREME MXD NUTS 1LB 8OZ - P 6    HAPPY HOLIDAYS!                         GEORGE M. HILLENBRAND II                                                                                      
4724000010267470001757377  02150RA J CONNELLY                  1603 W ABRAHAM AVE                                          GREENSBURG     IN47006                              N175 - SUPREME MXD NUTS 1LB 8OZ - P 6    HAPPY HOLIDAYS!                         GEORGE M. HILLENBRAND II                                                                                      
4700600010267470001225417  02150RMR AND MRS FRANK CONNELLY     825 SYCAMORE                                                BATESVILLE     IN47006                              N175 - SUPREME MXD NUTS 1LB 8OZ - P 6    HAPPY HOLIDAYS!                         GEORGE M. HILLENBRAND II                                                                                      
4700600010267470001064545  02150RMR AND MRS JEFFREY S CONNELLY 702 W PEARL ST                                              BATESVILLE     IN47006                              N175 - SUPREME MXD NUTS 1LB 8OZ - P 6    HAPPY HOLIDAYS!                         GEORGE M. HILLENBRAND II                                                                                      
4540900010267470001419741  02150RMR JOSEPH CONNELLY            2214 AVALON AVE                                             KETTERING      OH47006                              N175 - SUPREME MXD NUTS 1LB 8OZ - P 6    HAPPY HOLIDAYS!                         GEORGE M. HILLENBRAND II                                                                                      
4700600010267470001626938  02150RKATE CONNELLY                 702 W PEARL ST                                              BATESVILLE     IN47006                              N175 - SUPREME MXD NUTS 1LB 8OZ - P 6    HAPPY HOLIDAYS!                         GEORGE M. HILLENBRAND II                                                                                      
47006000102674700016579060002150R                              13 S SMITH ST                                               BATESVILLE     IN47006                              Y175 - SUPREME MXD NUTS 1LB 8OZ - P 6    HAPPY HOLIDAYS!                         GEORGE M. HILLENBRAND II                                                        DUNLAP BUILDING MATERIALS     
4700600010267470001568340  02150RJASON EMSWELLER               1899 E CO RD 1300 N                                         BATESVILLE     IN47006                              N175 - SUPREME MXD NUTS 1LB 8OZ - P 6    HAPPY HOLIDAYS!                         GEORGE M. HILLENBRAND II                                                                                      
4700600010267470001606526  02150RPEG FASBINDER                 4231 STOCKPILE ROAD                                         BATESVILLE     IN47006                              N175 - SUPREME MXD NUTS 1LB 8OZ - P 6    HAPPY HOLIDAYS!                         GEORGE M. HILLENBRAND II                                                                                      
4700600010267470001225419  02150RMRS LINDA FEGLEY              1072 SAWMILL RD                                             BATESVILLE     IN47006                              N175 - SUPREME MXD NUTS 1LB 8OZ - P 6    HAPPY HOLIDAYS!                         GEORGE M. HILLENBRAND II                                                                                      
0143200010267470001718413  02150RMRS ANITA FOREST              15 WINTHROP AVE               APT 224                       AYER           MA47006                              N175 - SUPREME MXD NUTS 1LB 8OZ - P 6    HAPPY HOLIDAYS!                         GEORGE M. HILLENBRAND II                                                                                      
2231400010267470001721092  02150RGEMMA FOREST                  MATTHEW GENOVESE              1213 POWHATAN ST              ALEXANDRIA     VA47006                              N175 - SUPREME MXD NUTS 1LB 8OZ - P 6    HAPPY HOLIDAYS!                         GEORGE M. HILLENBRAND II                                                                                      
3410800010267470001026777  02150RPEGGY FOREST                  9577 GULF SHORE DR            APT 603                       NAPLES         FL47006                              N175 - SUPREME MXD NUTS 1LB 8OZ - P 6    HAPPY HOLIDAYS!                         GEORGE M. HILLENBRAND II                                                                                      
0324900010267470001657890  02150RRICK FOREST                   60 SCENIC DR UNIT 1                                         GILFORD        NH47006                              N175 - SUPREME MXD NUTS 1LB 8OZ - P 6    HAPPY HOLIDAYS!                         GEORGE M. HILLENBRAND II                                                                                      
5504400010267470001684715  02150RSIENA FOREST                  LUKE WILLIAMS                 20633 HAMPSHIRE WAY           LAKEVILLE      MN47006                              N175 - SUPREME MXD NUTS 1LB 8OZ - P 6    HAPPY HOLIDAYS!                         GEORGE M. HILLENBRAND II                                                                                      
9411000010267470001832108  02150RMARY LOUISE & ZACH GEORGE     2832 HARRISON ST                                            SAN FRANCISCO  CA47006                              N175 - SUPREME MXD NUTS 1LB 8OZ - P 6    HAPPY HOLIDAYS!                         GEORGE M. HILLENBRAND II                                                                                      
4700600010267470001508865  02150RALBERTA GILTZ                 39 BEECHGROVE AVE                                           BATESVILLE     IN47006                              N175 - SUPREME MXD NUTS 1LB 8OZ - P 6    HAPPY HOLIDAYS!                         GEORGE M. HILLENBRAND II                                                                                      
3306900010267470001791066  02150RFRANK GUILLEN                 3500 OAKS CLUBHOUSE DR APT 111                              POMPANO BEACH  FL47006                              N175 - SUPREME MXD NUTS 1LB 8OZ - P 6    HAPPY HOLIDAYS!                         GEORGE M. HILLENBRAND II                                                                                      
2840900010267470001832111  02150RMIKA HARDKVIST                302 SEAVIEW RD                                              WILMINGTON     NC47006                              N175 - SUPREME MXD NUTS 1LB 8OZ - P 6    HAPPY HOLIDAYS!                         GEORGE M. HILLENBRAND II                                                                                      
4700600010267470001657888  02150RKEITH HEINLEIN                103 BEECHGROVE AVE                                          BATESVILLE     IN47006                              N175 - SUPREME MXD NUTS 1LB 8OZ - P 6    HAPPY HOLIDAYS!                         GEORGE M. HILLENBRAND II                                                                                      
1504300010267470001657887  02150RKENTON HEINLEIN               444 HILL RD                                                 GEORGETOWN     PA47006                              N175 - SUPREME MXD NUTS 1LB 8OZ - P 6    HAPPY HOLIDAYS!                         GEORGE M. HILLENBRAND II                                                                                      
4700600010267470001188742  02150RMERRILEE AND BILL HEINLEIN    103 BEECHGROVE AVENUE                                       BATESVILLE     IN47006                              N175 - SUPREME MXD NUTS 1LB 8OZ - P 6    HAPPY HOLIDAYS!                         GEORGE M. HILLENBRAND II                                                                                      
33487000102674700015977310002150R                              VAL BOB & RICK                3614 S OCEAN BLVD             HIGHLAND BEACH FL47006                              Y175 - SUPREME MXD NUTS 1LB 8OZ - P 6    HAPPY HOLIDAYS!                         GEORGE M. HILLENBRAND II                                                        HIGHLAND BEACH POST OFFICE    
3343200010267470001267673  02150RMR GEORGE M HILLENBRAND II    750 S OCEAN BLVD APT 9-S                                    BOCA RATON     FL47006                              N175 - SUPREME MXD NUTS 1LB 8OZ - P 6    HAPPY HOLIDAYS!                         GEORGE M. HILLENBRAND II                                                                                      
4515000010267470001657886  02150RANNIE HOFFMAN                 5649 LOCUST DR                                              MILFORD        OH47006                              N175 - SUPREME MXD NUTS 1LB 8OZ - P 6    HAPPY HOLIDAYS!                         GEORGE M. HILLENBRAND II                                                                                      
3348700010267470001718408  02150RFR BRIAN D HORGAN             ST LUCY CATHOLIC CHURCH       3510 S OCEAN BLVD             HIGHLAND BEACH FL47006                              N175 - SUPREME MXD NUTS 1LB 8OZ - P 6    HAPPY HOLIDAYS!                         GEORGE M. HILLENBRAND II                                                                                      
3348300010267470001791065  02150RJEFFREY HYLAND                924 EVERGREEN DR                                            DELRAY BEACH   FL47006                              N175 - SUPREME MXD NUTS 1LB 8OZ - P 6    HAPPY HOLIDAYS!                         GEORGE M. HILLENBRAND II                                                                                      
3343200010267470001757374  02150RMARY LEE                      C/O GM HILLENBRAND II         750 S OCEAN BLVD APT 9S       BOCA RATON     FL47006                              N175 - SUPREME MXD NUTS 1LB 8OZ - P 6    HAPPY HOLIDAYS!                         GEORGE M. HILLENBRAND II                                                                                      
47240000102674700015977230002150R                              RANDY                         PO BOX 228                    GREENSBURG     IN47006                              Y175 - SUPREME MXD NUTS 1LB 8OZ - P 6    HAPPY HOLIDAYS!                         GEORGE M. HILLENBRAND II                                                        LEVENSTEINS CARPET CARE       
4700600010267470001304523  02150RMR AND MRS DON MAPLE          335 STATE RD 129 S                                          BATESVILLE     IN47006                              N175 - SUPREME MXD NUTS 1LB 8OZ - P 6    HAPPY HOLIDAYS!                         GEORGE M. HILLENBRAND II                                                                                      
47006000102674700018321120002150R                              RADIOLOGY - LAB               321 MITCHELL AVE              BATESVILLE     IN47006                              Y175 - SUPREME MXD NUTS 1LB 8OZ - P 6    HAPPY HOLIDAYS!                         GEORGE M. HILLENBRAND II                                                        MARGARET MARY HEALTH          
4700600010267470001757372  02150RLANE MAUER                    1025 SAWMILL RD                                             BATESVILLE     IN47006                              N175 - SUPREME MXD NUTS 1LB 8OZ - P 6    HAPPY HOLIDAYS!                         GEORGE M. HILLENBRAND II                                                                                      
9002600010267470001684738  02150RGEORGE MCGRAW                 3308 DESCANSO DR                                            LOS ANGELES    CA47006                              N175 - SUPREME MXD NUTS 1LB 8OZ - P 6    HAPPY HOLIDAYS!                         GEORGE M. HILLENBRAND II                                                                                      
5454500010267470001508872  02150RMR AND MRS JOHN MCGRAW        35 DEER PARK RD                                             MANITOWISH WATEWI47006                              N175 - SUPREME MXD NUTS 1LB 8OZ - P 6    HAPPY HOLIDAYS!                         GEORGE M. HILLENBRAND II                                                                                      
2321900010267470001832103  02150RAUDREY MCMURTRIE              105 E GRACE ST APT 3                                        RICHMOND       VA47006                              N175 - SUPREME MXD NUTS 1LB 8OZ - P 6    HAPPY HOLIDAYS!                         GEORGE M. HILLENBRAND II                                                                                      
1110900010267470001832102  02150RDANIEL MCMURTRIE              475 48TH AVENUE                                             LONG ISLAND CITNY47006                              N175 - SUPREME MXD NUTS 1LB 8OZ - P 6    HAPPY HOLIDAYS!                         GEORGE M. HILLENBRAND II                                                                                      
9492000010267470001684718  02150RMR AND MRS DANIEL MCMURTRIE   345 GOLDEN GATE AVE                                         BELVEDERE      CA47006                              N175 - SUPREME MXD NUTS 1LB 8OZ - P 6    HAPPY HOLIDAYS!                         GEORGE M. HILLENBRAND II                                                                                      
3141000010267470001757378  02150RKATHRYN & DRAKE MCMURTRIE     59 LIGHTHOUSE POINT                                         SAVANNAH       GA47006                              N175 - SUPREME MXD NUTS 1LB 8OZ - P 6    HAPPY HOLIDAYS!                         GEORGE M. HILLENBRAND II                                                                                      
2311300010267470001718417  02150RLUKE MCMURTRIE                13920 PAGEHURST TERRACE                                     MIDLOTHIAN     VA47006                              N175 - SUPREME MXD NUTS 1LB 8OZ - P 6    HAPPY HOLIDAYS!                         GEORGE M. HILLENBRAND II                                                                                      
7875800010267470001757380  02150RMARA MCMURTRIE                10301 BURNET ROAD APT 2230                                  AUSTIN         TX47006                              N175 - SUPREME MXD NUTS 1LB 8OZ - P 6    HAPPY HOLIDAYS!                         GEORGE M. HILLENBRAND II                                                                                      
2345100010267470001757379  02150ROLIVIA MCMURTRIE              1244 PEOPLES WAY                                            VIRGINIA BEACH VA47006                              N175 - SUPREME MXD NUTS 1LB 8OZ - P 6    HAPPY HOLIDAYS!                         GEORGE M. HILLENBRAND II                                                                                      
2311300010267470001684721  02150RALEXANDER MCMURTRIE           11000 REEDS LANDING RD                                      MIDLOTHIAN     VA47006                              N175 - SUPREME MXD NUTS 1LB 8OZ - P 6    HAPPY HOLIDAYS!                         GEORGE M. HILLENBRAND II                                                                                      
4700600010267470001757373  02150REMILY MEYER                   2483 E MOLLENKRAMER RD                                      BATESVILLE     IN47006                              N175 - SUPREME MXD NUTS 1LB 8OZ - P 6    HAPPY HOLIDAYS!                         GEORGE M. HILLENBRAND II                                                                                      
2946600010267470001718418  02150RCLAUDIA MILLER                1596 CYPRESS POINTE DR                                      MOUNT PLEASANT SC47006                              N175 - SUPREME MXD NUTS 1LB 8OZ - P 6    HAPPY HOLIDAYS!                         GEORGE M. HILLENBRAND II                                                                                      
3141000010267470001718415  02150RDEREK PEREZ-PANTOJA           59 LIGHTHOUSE CT                                            SAVANNAH       GA47006                              N175 - SUPREME MXD NUTS 1LB 8OZ - P 6    HAPPY HOLIDAYS!                         GEORGE M. HILLENBRAND II                                                                                      
6406300010267470001718455  02150RBRUCE PHILLIPS                210 SE CIRCLEVIEW DR                                        LEES SUMMIT    MO47006                              N175 - SUPREME MXD NUTS 1LB 8OZ - P 6    HAPPY HOLIDAYS!                         GEORGE M. HILLENBRAND II                                                                                      
4700600010267470001718409  02150RFR STANLEY PONDO              ST LOUIS CATHOLIC CHURCH      13 ST LOUIS PLACE             BATESVILLE     IN47006                              N175 - SUPREME MXD NUTS 1LB 8OZ - P 6    HAPPY HOLIDAYS!                         GEORGE M. HILLENBRAND II                                                                                      
2940700010267470001225423  02150RELISABETH AND ERNIE RAVENEL   11 JOHNSON RD                                               CHARLESTON     SC47006                              N175 - SUPREME MXD NUTS 1LB 8OZ - P 6    HAPPY HOLIDAYS!                         GEORGE M. HILLENBRAND II                                                                                      
4503000010267470001304524  02150RMR AND MRS GARY REATHERFORD   405 HARRISON AVE                                            HARRISON       OH47006                              N175 - SUPREME MXD NUTS 1LB 8OZ - P 6    HAPPY HOLIDAYS!                         GEORGE M. HILLENBRAND II                                                                                      
4603700010267470001144613  02150RMR AND MRS THOMAS R RYDER     10660 BROOKS SCHOOL RD                                      FISHERS        IN47006                              N175 - SUPREME MXD NUTS 1LB 8OZ - P 6    HAPPY HOLIDAYS!                         GEORGE M. HILLENBRAND II                                                                                      
0246700010267470001832099  02150RMR AND MRS ALEXANDER SACERDOTE112 WOODLAND RD                                             CHESTNUT HILL  MA47006                              N175 - SUPREME MXD NUTS 1LB 8OZ - P 6    HAPPY HOLIDAYS!                         GEORGE M. HILLENBRAND II                                                                                      
3348700010267470001684736  02150RBILL SANTEN                   QUALITY CARPET CLEANERS       17295 LAKE PARK RD            BOCA RATON     FL47006                              N175 - SUPREME MXD NUTS 1LB 8OZ - P 6    HAPPY HOLIDAYS!                         GEORGE M. HILLENBRAND II                                                                                      
0255400010267470001026752  02150RMRS IRENE G SHANE             10 MARTINS LN                                               NANTUCKET      MA47006                              N175 - SUPREME MXD NUTS 1LB 8OZ - P 6    HAPPY HOLIDAYS!                         GEORGE M. HILLENBRAND II                                                                                      
2946400010267470001508868  02150RDR GERARD A SILVESTRI         MUSC HOLLINGS CANCER CTR      602 CHIMNEY BLUFF DR          MOUNT PLEASANT SC47006                              N175 - SUPREME MXD NUTS 1LB 8OZ - P 6    HAPPY HOLIDAYS!                         GEORGE M. HILLENBRAND II                                                                                      
4625600010267470001026765  02150RMR AND MRS ADAM R SMITH       7950 SARGENT RD                                             INDIANAPOLIS   IN47006                              N175 - SUPREME MXD NUTS 1LB 8OZ - P 6    HAPPY HOLIDAYS!                         GEORGE M. HILLENBRAND II                                                                                      
4625600010267470001757381  02150RCARSTEN SMITH                 8800 E 82ND ST                                              INDIANAPOLIS   IN47006                              N175 - SUPREME MXD NUTS 1LB 8OZ - P 6    HAPPY HOLIDAYS!                         GEORGE M. HILLENBRAND II                                                                                      
9002600010267470001759814  02150RCHARLOTTE SMITH               851 N DILLON ST APT 1                                       LOS ANGELES    CA47006                              N175 - SUPREME MXD NUTS 1LB 8OZ - P 6    HAPPY HOLIDAYS!                         GEORGE M. HILLENBRAND II                                                                                      
4625600010267470001026757  02150RJOAN AND BOB SMITH            8800 EAST 82ND STREET                                       INDIANAPOLIS   IN47006                              N175 - SUPREME MXD NUTS 1LB 8OZ - P 6    HAPPY HOLIDAYS!                         GEORGE M. HILLENBRAND II                                                                                      
4625600010267470001757382  02150RKARLI SMITH                   7712 TEEL WAY                                               INDIANAPOLIS   IN47006                              N175 - SUPREME MXD NUTS 1LB 8OZ - P 6    HAPPY HOLIDAYS!                         GEORGE M. HILLENBRAND II                                                                                      
4603300010267470001447981  02150RMATTHEW SMITH                 15490 BRIDGEWATER CLUB BLVD                                 CARMEL         IN47006                              N175 - SUPREME MXD NUTS 1LB 8OZ - P 6    HAPPY HOLIDAYS!                         GEORGE M. HILLENBRAND II                                                                                      
9209100010267470001832109  02150RMR AND MRS RANDOLPH SMITH     3715 PASEO VISTA FAMOSA #918                                RANCHO SANTA FECA47006                              N175 - SUPREME MXD NUTS 1LB 8OZ - P 6    HAPPY HOLIDAYS!                         GEORGE M. HILLENBRAND II                                                                                      
8040100010267470001832110  02150RSIMON SMITH                   1207 EIGHTH ST                                              GOLDEN         CO47006                              N175 - SUPREME MXD NUTS 1LB 8OZ - P 6    HAPPY HOLIDAYS!                         GEORGE M. HILLENBRAND II                                                                                      
47240000102674700016578970002150R                              921 E MAIN ST                                               GREENSBURG     IN47006                              Y175 - SUPREME MXD NUTS 1LB 8OZ - P 6    HAPPY HOLIDAYS!                         GEORGE M. HILLENBRAND II                                                        STONE'S FARM SERVICE          
45227000102674700015088690002150R                              MARY VICKY AND STAFF          6800 WOOSTER PIKE             CINCINNATI     OH47006                              Y175 - SUPREME MXD NUTS 1LB 8OZ - P 6    HAPPY HOLIDAYS!                         GEORGE M. HILLENBRAND II                                                        VICTORIA TRAVEL               
3343200010267470001757367  02150RDEVIN WARDELL                 SABAL RIDGE APARTMENTS        750 S OCEAN BLVD APT 1N       BOCA RATON     FL47006                              N175 - SUPREME MXD NUTS 1LB 8OZ - P 6    HAPPY HOLIDAYS!                         GEORGE M. HILLENBRAND II                                                                                      
4700600010267470001597701  02150RBUZZ WEBERDING                WEBERDING CARVING SHOP        151 N TOWNSHIP COUNTY LINE RD BATESVILLE     IN47006                              N175 - SUPREME MXD NUTS 1LB 8OZ - P 6    HAPPY HOLIDAYS!                         GEORGE M. HILLENBRAND II                                                                                      
4703600010267470001832107  02150RMIKE WILHELM                  3044 AVERDICK                                               OLDENBURG      IN47006                              N175 - SUPREME MXD NUTS 1LB 8OZ - P 6    HAPPY HOLIDAYS!                         GEORGE M. HILLENBRAND II                                                                                      
3721500010267470001832100  02150RMR AND MRS RICH WILSON        4406 CHICKERING LANE                                        NASHVILLE      TN47006                              N175 - SUPREME MXD NUTS 1LB 8OZ - P 6    HAPPY HOLIDAYS!                         GEORGE M. HILLENBRAND II                                                                                      
3344100010267470001757371  02150RFR DARIUSZ ZAREBSKI           ST AMBROSE CHURCH             380 E FEDERAL HIGHWAY         DEERFIELD BEACHFL47006                              Y175 - SUPREME MXD NUTS 1LB 8OZ - P 6    HAPPY HOLIDAYS!                         GEORGE M. HILLENBRAND II                                                                                      
3603200010451960000000000  02150DREN HEARTSILL                 515 LEE ST                                                  FORT DEPOSIT   AL36032DEAR FRIEND,                  N                                                                                                                                                                                              MPHILLIPS@MULTIVALUECENTRAL.COM
37363000104519600017639640002150R                              TO OUR FRIENDS                7923 SUE DR                   OOLTEWAH       TN36032                              Y197 - PECAN FIDDLESTICKS  - P 18        FROM REN AND GLEN,                      HAVE A HAPPY HOLIDAY SEASON!                                                    BIGGS TRUCKING                
6850200010451960001845375  02150RADAM CROTTEAU                 3030 SUMMIT BLVD                                            LINCOLN        NE36032                              NMULTIPLE ITEMS FOR THIS RECIPIENT       FROM REN AND PETE                       HAVE A HAPPY HOLIDAY SEASON! BE SURE    SANTA COMES TO SEE EMILY!                                             
36109000104519600018536830002150R                              JOSH                          2530 MIDPARK RD               MONTGOMERY     AL36032                              Y140 - FESTIVE FAVORITES GFT BOX - P 18  HAPPY HOLIDAYS!                         FROM REN                                                                        FERGUSON ENTERPRISES          
97367000104519600018211780002150R                              1605 SW HIGHWAY 101                                         LINCOLN CITY   OR36032                              Y37 - PECAN FIDDLESTICKS GFT BOX - P 14  HOPE YOU ENJOY! WAS GOOD TO SEE YOU     FROM REN                                                                        GERBER TIRE                   
35210000104519600018453740002150R                              LINDA THOMAS                  5629 MILLER INDUSTRIAL BLVD   BIRMINGHAM     AL36032                              YMULTIPLE ITEMS FOR THIS RECIPIENT       FROM REN                                HAVE A HAPPY HOLIDAY SEASON!                                                    HEPACO                        
00001000104519600017164250002150R                              1000 ROOSEVELT CRES           NORTH VANCOUVER,BC,V7P 3R4    CANADA           36032                              YMULTIPLE ITEMS FOR THIS RECIPIENT       FROM REN, GLEN AND ELIZABETH            TO OUR CANADIAN FRIENDS, HAVE A         HAPPY HOLIDAY SEASON!                   J & H FOREST PRODUCTS         
62864000104519600017639650002150R                              MARY & MIA                    510 S 6TH ST                  MOUNT VERNON   IL36032                              Y4 - TASTE OF PRIESTER GIFT BOX - P 18   FROM REN AND PETE                       HAVE A HAPPY HOLIDAY SEASON!                                                    MILANO RAILWAY                
3734300010451960001763823  02150RSTEVEN O MALLEY               1622 LISA LYNN DR                                           HIXSON         TN36032                              N30 - SIGNATURE GIFT BOX  - P 17         FROM REN, GLEN AND ELIZABETH            HAVE A HAPPY HOLIDAY SEASON!            GIVE SOME TO THE GUYS, PLEASE                                         
4637500010451960001767370  02150RDAN PRICE                     40 E JOLIET ST                STE A                         SCHERERVILLE   IN36032                              NMULTIPLE ITEMS FOR THIS RECIPIENT       FROM REN                                HAVE A HAPPY HOLIDAY SEASON!                                                                                  
3512600010451960001636670  02150RELIZABETH PRIDGEN             5559 SPANISH TRCE                                           PINSON         AL36032                              N140 - FESTIVE FAVORITES GFT BOX - P 18  HAPPY HOLIDAYS!                         REN                                                                                                           
97035000104519600016524610002150R                              CHRIS & BRIAN                 4800 MEADOWS RD STE 250       LAKE OSWEGO    OR36032                              YMULTIPLE ITEMS FOR THIS RECIPIENT       HOPE YOU ENJOY! REN AND ELIZABETH                                                                                       SHERWOOD LUMBER               
0000100010451960001864237  02150RDON SLACK                     1896 SEA LION CRESCENT        NANOOSE,BC,V9P 9J3            CANADA           36032                              N43 - SOUTHERN CLASSIC GIFT TIN - P 20   FROM REN HEARTSILL                                                                                                                                    
7624400010451960001767368  02150RMICHAEL YUEN                  4732 GERALD COURT                                           KELLER         TX36032                              NMULTIPLE ITEMS FOR THIS RECIPIENT       FROM REN AND ELIZABETH                  HAVE A HAPPY HOLIDAY SEASON!                                                                                  
36054000105892500000000000 02156DKIMBERLY BUSH                 P O BOX 340                                                 MILLBROOK      AL36054DEAR FRIEND,                  Y                                                                                                                                                                IMPERIAL MAILBOX SYSTEMS      MPHILLIPS@MULTIVALUECENTRAL.COM
35953000105892500012337290002156R                              139 TURKEY HOLLOW LANE                                      ASHVILLE       AL36054                              Y398 - DISCONTINUED SUGGEST 4 - P 17     HAPPY NEW YEAR!                         FROM THE IMPERIAL MAILBOX FAMILY                                                ALABAMA MAILBOX COMPANY       
7079100010589250001742969  02156RWAYNE AMATO                   ALUMINUM ACCENTS              2541 S TURNBERRY AVE          ZACHARY        LA36054                              N103 - STHRN DELIGHT SMPLR 14 OZ - P 17  HAPPY NEW YEAR!                         FROM THE IMPERIAL MAILBOX FAMILY                                                                              
2710400010589250001742990  02156RANNETTE BLEVINS               STREETSCAPES & WINDOW WORKS   5723 COUNTRY CLUB RD STE Q    WINSTON SALEM  NC36054                              N103 - STHRN DELIGHT SMPLR 14 OZ - P 17  HAPPY NEW YEAR!                         FROM THE IMPERIAL MAILBOX FAMILY                                                                              
02130000105892500017906860002156R                              17 PARKSIDE DR                                              JAMAICA PLAIN  MA36054                              Y398 - DISCONTINUED SUGGEST 4 - P 17     HAPPY NEW YEAR!                         FROM THE IMPERIAL MAILBOX FAMILY                                                BOSE ASSOCIATES               
37217000105892500017906930002156R                              862 EASTHAGAN DR                                            NASHVILLE      TN36054                              Y103 - STHRN DELIGHT SMPLR 14 OZ - P 17  HAPPY NEW YEAR!                         FROM THE IMPERIAL MAILBOX FAMILY                                                BOZMAN SIGN CO                
43011000105892500017906830002156R                              2676 RICH HILL RD                                           CENTERBURG     OH36054                              Y398 - DISCONTINUED SUGGEST 4 - P 17     HAPPY NEW YEAR!                         FROM THE IMPERIAL MAILBOX FAMILY                                                BUSY BEE CONSTRUCTION         
28206000105892500017906800002156R                              3428 C VANE COURT                                           CHARLOTTE      NC36054                              Y398 - DISCONTINUED SUGGEST 4 - P 17     HAPPY NEW YEAR!                         FROM THE IMPERIAL MAILBOX FAMILY                                                CAROLINA MAILBOXES            
1171700010589250001742986  02156RPHIL CROSS                    MAILBOX SHOPPE                8 CAIN DR                     BRENTWOOD      NY36054                              N103 - STHRN DELIGHT SMPLR 14 OZ - P 17  HAPPY NEW YEAR!                         THE IMPERIAL MAILBOX FAMILY                                                                                   
70301000105892500016730370002156R                              1144 TIGER DR STE A                                         THIBODAUX      LA36054                              Y103 - STHRN DELIGHT SMPLR 14 OZ - P 17  HAPPY NEW YEAR!                         FROM THE IMPERIAL MAILBOX FAMILY                                                DECORATIVE MAILBOXES          
46226000105892500017906920002156R                              7510 EAST 39TH ST                                           INDIANAPOLIS   IN36054                              Y103 - STHRN DELIGHT SMPLR 14 OZ - P 17  HAPPY NEW YEAR!                         FROM THE IMPERIAL MAILBOX FAMILY                                                ESTES DESIGN & MANUFACTURING  
7044700010589250001742980  02156RKELLY GLASS                   SOUTHERN MAILBOXES & ACCESS   407 HIGHWAY 22 WEST           MADISONVILLE   LA36054                              N103 - STHRN DELIGHT SMPLR 14 OZ - P 17  HAPPY NEW YEAR!                         FROM THE IMPERIAL MAILBOX FAMILY                                                                              
70817000105892500017906940002156R                              6307 QUINN DR                                               BATON ROUGE    LA36054                              Y103 - STHRN DELIGHT SMPLR 14 OZ - P 17  HAPPY NEW YEAR!                         FROM THE IMPERIAL MAILBOX FAMILY                                                HART NATIONAL SALES           
70726000105892500017906970002156R                              25771 CARNOUSTIE WAY                                        DENHAM SPRINGS LA36054                              Y103 - STHRN DELIGHT SMPLR 14 OZ - P 17  HAPPY NEW YEAR!                         FROM THE IMPERIAL MAILBOX FAMILY                                                INTEGRITY MAILBOX             
35613000105892500015258730002156R                              26915 OAK RD                                                ATHENS         AL36054                              Y103 - STHRN DELIGHT SMPLR 14 OZ - P 17  HAPPY NEW YEAR!                         FROM THE IMPERIAL MAILBOX FAMILY                                                IRONWORKS INC                 
37917000105892500017906870002156R                              221 BERNARD AVE                                             KNOXVILLE      TN36054                              Y103 - STHRN DELIGHT SMPLR 14 OZ - P 17  HAPPY NEW YEAR!                         FROM THE IMPERIAL MAILBOX FAMILY                                                L & M ORNATMENTAL IRON        
70454000105892500016730380002156R                              39803 MARK CT                                               PONCHATOULA    LA36054                              Y103 - STHRN DELIGHT SMPLR 14 OZ - P 17  HAPPY NEW YEAR!                         FROM THE IMPERIAL MAILBOX FAMILY                                                MAGNIFICENT MAILBOXES         
11768000105892500017906910002156R                              54 MAPLE AVE                                                NORTHPORT      NY36054                              Y103 - STHRN DELIGHT SMPLR 14 OZ - P 17  HAPPY NEW YEAR!                         FROM THE IMPERIAL MAILBOX FAMILY                                                MAILBOX SHOPPE                
46038000105892500016730390002156R                              10087 ALLISONVILLE RD STE A                                 FISHERS        IN36054                              Y103 - STHRN DELIGHT SMPLR 14 OZ - P 17  HAPPY NEW YEAR!                         FROM THE IMPERIAL MAILBOX FAMILY                                                MAILBOX SOLUTIONS             
30024000105892500017906960 02156RJOEY GREER                    587 CYPHER DR                                               SUWANEE        GA36054                              Y103 - STHRN DELIGHT SMPLR 14 OZ - P 17  HAPPY NEW YEAR!                         FROM THE IMPERIAL MAILBOX FAMILY                                                MAILBOX STORE USA             
45122000105892500012337190002156R                              6257 STATE ROUTE 132                                        GOSHEN         OH36054                              Y398 - DISCONTINUED SUGGEST 4 - P 17     HAPPY NEW YEAR!                         FROM THE IMPERIAL MAILBOX FAMILY                                                MAILBOXES BY DESIGN           
20109000105892500017906780 02156RMIKE HORNER                   8757 VIRGINIA MEADOWS DR                                    MANASSAS       VA36054                              Y398 - DISCONTINUED SUGGEST 4 - P 17     HAPPY NEW YEAR!                         FROM THE IMPERIAL MAILBOX FAMILY                                                MAINSTREET MAILBOXES & MORE   
3012100010589250001742982  02156RVANESSA & RYAN MARTIN         G S I HOME SERVICES LLC       11 PONDERS RD SE              CARTERSVILLE   GA36054                              N103 - STHRN DELIGHT SMPLR 14 OZ - P 17  HAPPY NEW YEAR!                         FROM THE IMPERIAL MAILBOX FAMILY                                                                              
3680400010589250001709366  02156RLUKE MCALISTER                MCALISTER ENTERPRISES         3460 LAKESHORE DR             OPELIKA        AL36054                              Y103 - STHRN DELIGHT SMPLR 14 OZ - P 17  HAPPY NEW YEAR!                         FROM THE IMPERIAL MAILBOX FAMILY                                                                              
3234400010589250001790695  02156RCHRIS MCDONALD                1627 LLOYD CREEK RD                                         MONTICELLO     FL36054                              N103 - STHRN DELIGHT SMPLR 14 OZ - P 17  HAPPY NEW YEAR!                         FROM THE IMPERIAL MAILBOX FAMILY                                                                              
21701000105892500014374800002156R                              550 HIGHLAND ST STE 420                                     FREDERICK      MD36054                              Y398 - DISCONTINUED SUGGEST 4 - P 17     HAPPY NEW YEAR!                         FROM THE IMPERIAL MAILBOX FAMILY                                                MIDATLANTIC MAILBOXES         
3390500010589250001742979  02156RNICK MILLER                   MAILBOXES SW FLORIDA          9160 FORUM CORPORATE PKWY     FORT MYERS     FL36054                              N103 - STHRN DELIGHT SMPLR 14 OZ - P 17  HAPPY NEW YEAR!                         FROM THE IMPERIAL MAILBOX FAMILY                                                                              
45255000105892500017092600002156R                              838 ACKLEY RD                                               CINCINNATI     OH36054                              Y103 - STHRN DELIGHT SMPLR 14 OZ - P 17  HAPPY NEW YEAR!                         FROM THE IMPERIAL MAILBOX FAMILY                                                NICE MAILBOX                  
46143000105892500015258710002156R                              2449 E MAIN ST                                              GREENWOOD      IN36054                              Y103 - STHRN DELIGHT SMPLR 14 OZ - P 17  HAPPY NEW YEAR!                         FROM THE IMPERIAL MAILBOX FAMILY                                                OTTO'S PARKING MARKING        
3051700010589250001790690  02156RNICK OVERBY                   6229 RIVERVIEW PKWY                                         BRASELTON      GA36054                              N103 - STHRN DELIGHT SMPLR 14 OZ - P 17  HAPPY NEW YEAR!                         FROM THE IMPERIAL MAILBOX FAMILY                                                                              
2957700010589250001790698  02156RANDREW & LACY PAULSSEN        HOUSE PARTS                   801 NORTH KINGS HWY STE A     MYRTLE BEACH   SC36054                              N103 - STHRN DELIGHT SMPLR 14 OZ - P 17  HAPPY NEW YEAR!                         FROM THE IMPERIAL MAILBOX FAMILY                                                                              
27603000105892500012337120002156R                              215 TRYON ROAD                                              RALEIGH        NC36054                              Y398 - DISCONTINUED SUGGEST 4 - P 17     HAPPY NEW YEAR!                         FROM THE IMPERIAL MAILBOX FAMILY                                                POST & PICKETS                
9576200010589250001790677  02156RLUCAS ROBINSON                1991 LESARA CT                                              EL DORADO HILLSCA36054                              N398 - DISCONTINUED SUGGEST 4 - P 17     HAPPY NEW YEAR!                         FROM THE IMPERIAL MAILBOX FAMILY                                                                              
30340000105892500017906840002156R                              2351 BUTTON GWINNETT DR       STE 800                       ATLANTA        GA36054                              Y398 - DISCONTINUED SUGGEST 4 - P 17     HAPPY NEW YEAR!                         FROM THE IMPERIAL MAILBOX FAMILY                                                S E I GROUP                   
3718400010589250001673050  02156REDDIE TAYLOR                  TAYLOR FABRICATIONS           1555 POPLAR HILL RD           WATERTOWN      TN36054                              Y103 - STHRN DELIGHT SMPLR 14 OZ - P 17  HAPPY NEW YEAR!                         FROM THE IMPERIAL MAILBOX FAMILY                                                                              
38487000105892500017092660002156R                              4100 WILLIAMSPORT PIKE                                      WILLIAMSPORT   TN36054                              Y398 - DISCONTINUED SUGGEST 4 - P 17     HAPPY NEW YEAR!                         FROM THE IMPERIAL MAILBOX FAMILY                                                TOTAL LAND MANAGEMENT         
60081000105892500017906890002156R                              2701 NORTH US HWY 12          STE A                         SPRING GROVE   IL36054                              Y103 - STHRN DELIGHT SMPLR 14 OZ - P 17  HAPPY NEW YEAR!                         FROM THE IMPERIAL MAILBOX FAMILY                                                U S POST COMPANY              
3016800010589250001742960  02156RCATHY WHEELER                 STRICKLAND METALCRAFTS        6222 JAMES RD                 AUSTELL        GA36054                              N103 - STHRN DELIGHT SMPLR 14 OZ - P 17  HAPPY NEW YEAR!                         FROM THE IMPERIAL MAILBOX FAMILY                                                                              
27613000105892500017906880002156R                              8120 BROOKWOOD CT                                           RALEIGH        NC36054                              Y103 - STHRN DELIGHT SMPLR 14 OZ - P 17  HAPPY NEW YEAR!                         FROM THE IMPERIAL MAILBOX FAMILY                                                ZBOX                          
4521300010631550000000000  02151DMS ALICE HARKINS              6019 WOODFORD CT APT 2                                      CINCINNATI     OH45213DEAR MS. HARKINS,             N                                                                                                                                                                                              MPHILLIPS@MULTIVALUECENTRAL.COM
1080300010631550001179577  02151RTHE BARNETT FAMILY            30 GARDEN RD                                                PELHAM         NY45213                              N37 - PECAN FIDDLESTICKS GFT BOX - P 14  AUNT ALICE                                                                                                                                            
0771600010631550001442941  02151RCATHERINE BUTLER              37 VALLEY DR                                                ATLANTIC HIGHLANJ45213                              N37 - PECAN FIDDLESTICKS GFT BOX - P 14  AUNT ALICE                                                                                                                                            
0633500010631550001442944  02151RCHRISTOPHER & SHARON BUTLER   12 WASHINGTON DR                                            GALES FERRY    CT45213                              N37 - PECAN FIDDLESTICKS GFT BOX - P 14  AUNT ALICE                                                                                                                                            
1207800010631550001442943  02151RMARIAN BUTLER                 110 PEKARA DR                                               GLOVERSVILLE   NY45213                              NMULTIPLE ITEMS FOR THIS RECIPIENT       LOVE, AUNT ALICE                                                                                                                                      
0184300010631550001442942  02151RSTEPHEN & MARICELL BUTLER     155 BAILEY ST                                               LAWRENCE       MA45213                              N37 - PECAN FIDDLESTICKS GFT BOX - P 14  AUNT ALICE                                                                                                                                            
1170900010631550001100172  02151RMR AND MRS DENNIS HARKINS     6 PINE LANE                                                 BAYVILLE       NY45213                              N37 - PECAN FIDDLESTICKS GFT BOX - P 14  AUNT ALICE                                                                                                                                            
1052000010631550001422126  02151RJAMES HARKINS                 AND FAMILY                    9 DAILEY DR                   CROTON ON HUDSONY45213                              N37 - PECAN FIDDLESTICKS GFT BOX - P 14  AUNT ALICE                                                                                                                                            
2820200010631550001100171  02151RMR VINCENT HARKINS            218 N IRWIN AVE                                             CHARLOTTE      NC45213                              N37 - PECAN FIDDLESTICKS GFT BOX - P 14  AUNT ALICE                                                                                                                                            
0880700010631550001100173  02151RMR AND MRS WILLIAM HARKINS    603 BROKAW CT                                               BRIDGEWATER    NJ45213                              N37 - PECAN FIDDLESTICKS GFT BOX - P 14  AUNT ALICE                                                                                                                                            
2293600010631550001422127  02151RTHOMAS HARKINS AND FAMIL      6 CEDAR RD                                                  EARLYSVILLE    VA45213                              N37 - PECAN FIDDLESTICKS GFT BOX - P 14  AUNT ALICE                                                                                                                                            
1832800010631550001422125  02151RMARK D MAIO                   AND FAMILY                    205 LAKE FOREST DR            DINGMANS FERRY PA45213                              N37 - PECAN FIDDLESTICKS GFT BOX - P 14  AUNT ALICE                                                                                                                                            
1098900010631550001422130  02151RDOUG MORRIS                   AND FAMILY                    261 MAPLE RD                  VALLEY COTTAGE NY45213                              N37 - PECAN FIDDLESTICKS GFT BOX - P 14  AUNT ALICE                                                                                                                                            
1461600010631550001100174  02151RMR AND MRS WM MURPHY          924 STONE RD                                                ROCHESTER      NY45213                              N37 - PECAN FIDDLESTICKS GFT BOX - P 14  AUNT ALICE                                                                                                                                            
3501000010639010000000000  02151DMS NANCY R GWALTNEY           384 RIDGEWAY DR                                             ALEXANDER CITY AL35010DEAR MS. GWALTNEY,            N                                                                                                                                                                                              MPHILLIPS@MULTIVALUECENTRAL.COM
2867500010639010001625407  02151RMR AND MRS DALE BAUGUS        1820 BLEDSOE CREEK RD                                       SPARTA         NC35010                              N2100 - OF & CHOC PECAN PIES 1EA - P 9   HAPPY HOLIDAYS                          NANCY GWALTNEY                                                                                                
3340600010639010001625406  02151RMRS MATT BEASLEY              2692 NASSAU RD                                              WEST PALM BEACHFL35010                              N2100 - OF & CHOC PECAN PIES 1EA - P 9   HAPPY HOLIDAYS                          NANCY GWALTNEY                                                                                                
2867500010639010001840725  02151RMR AND MRS JIM BROWN          1700 BLEDSOE CREEK RD                                       SPARTA         NC35010                              N2100 - OF & CHOC PECAN PIES 1EA - P 9   HAPPY HOLIDAYS                          NANCY GWALTNEY                                                                                                
2710400010639010001532859  02151RMRS COURTNEY DOUGLAS          2843 BITTING RD                                             WINSTON SALEM  NC35010                              N2100 - OF & CHOC PECAN PIES 1EA - P 9   HAPPY HOLIDAYS                          NANCY GWALTNEY                                                                                                
2863500010639010001653445  02151RMR AND MRS DAKOTA FINGERS     922 MAPLE GROVE CHURCH RD                                   HAYS           NC35010                              N2100 - OF & CHOC PECAN PIES 1EA - P 9   HAPPY HOLIDAYS                          NANCY GWALTNEY                                                                                                
3501000010639010001653440  02151RMS ANITA GOGGANS              197 N CENTRAL AVE                                           ALEXANDER CITY AL35010                              N2100 - OF & CHOC PECAN PIES 1EA - P 9   HAPPY HOLIDAYS                          NANCY GWALTNEY                                                                                                
2866800010639010001840726  02151RMRS ANGIE HOWELL              1056 RIDGE RD                                               ROARING GAP    NC35010                              N2100 - OF & CHOC PECAN PIES 1EA - P 9   HAPPY HOLIDAYS                          NANCY GWALTNEY                                                                                                
2867500010639010001653441  02151RMRS GLORIA MEDINA             405 MACEDONIA CHURCH RD                                     SPARTA         NC35010                              N2100 - OF & CHOC PECAN PIES 1EA - P 9   HAPPY HOLIDAYS                          NANCY GWALTNEY                                                                                                
2867500010639010001653442  02151RMRS ELOISA GARCIA REBOLLAR    99 SNOW LANE                                                SPARTA         NC35010                              N2100 - OF & CHOC PECAN PIES 1EA - P 9   HAPPY HOLIDAYS                          NANCY GWALTNEY                                                                                                
2710400010639010001564212  02151RMR AND MRS MARK REECE JR      2720 WINDSOR RD                                             WINSTON SALEM  NC35010                              N2100 - OF & CHOC PECAN PIES 1EA - P 9   HAPPY HOLIDAYS                          NANCY GWALTNEY                                                                                                
2867500010639010001653443  02151RMR JOEY ROYALL                224 TEDDER RD                                               SPARTA         NC35010                              N2100 - OF & CHOC PECAN PIES 1EA - P 9   HAPPY HOLIDAYS                          NANCY GWALTNEY                                                                                                
3501000010639010001658586  02151RMR CHARLES TATUM              1695 MAGNOLIA ST                                            ALEXANDER CITY AL35010                              N2100 - OF & CHOC PECAN PIES 1EA - P 9   HAPPY HOLIDAYS                          NANCY GWALTNEY                                                                                                
3507200010639010001653438  02151RMR WILLIAM WHITE              1645 HOLMANS CROSSROADS                                     GOODWATER      AL35010                              N2100 - OF & CHOC PECAN PIES 1EA - P 9   HAPPY HOLIDAYS                          NANCY GWALTNEY                                                                                                
2863500010639010001653444  02151RMR AND MRS RANDY WHITLEY      924 MAPLE GROVE CHURCH RD                                   HAYS           NC35010                              N2100 - OF & CHOC PECAN PIES 1EA - P 9   HAPPY HOLIDAYS                          NANCY GWALTNEY                                                                                                
